LINE       ADDRESS    DATA                                                                   ERROR MESSAGE
1          00005077   6D5F54535F5630310000                                                   Valid               
2          1FFE0ED0   00000000000000000000000000000000000000000000000000000000               Valid               
3          1FFE0EEC   00000000000000000000000000000000000000000000000000000000               Valid               
4          1FFE0F08   00000000000000000000000000000000000000000000000000000000               Invalid: Wrong byte count
5          1FFE0ED0   00000000000000000000000000000010000000000000000000000000               Invalid: Checksum error
6          1FFE0F40   00000000000000000000000000000000000000000000000000000000               Valid               
7          1FFE0F5C   00000000000000000000000000000000000000000000000000000000               Invalid: Wrong byte count
8          1FFE0F78   00000000000000000000000000000000000000000000000000000000               Valid               
9          1FFE0F94   00000000000000000000000000000000000000000000000000000000               Valid               
10         1FFE0FB0   00000000000000000000000000000000000000000000000000000000               Valid               
11         1FFE0FCC   00000000000000000000000000000000000000000000000000000000               Valid               
12         1F6E0FE8   00000000000000000000000000000000000000000000000000000000               Invalid: Checksum error
13         1FFE1004   00000000000000000000000000000000000000000000000000000000               Valid               
14         1FFE1020   00000000000000000000000000000000000000000000000000000000               Valid               
15         1FKE103C   00000000000000000000000000000000000000000000000000000000               Invalid: The line has a non-hexadecimal character
16         1FFE1058   00000000000000000000000000000000000000000000000000000000               Valid               
17         1FFE1074   00000000000000000000000000000000000000000000000000000000               Valid               
18         1FFE1090   00000000000000000000000000000000000000000000000000000000               Valid               
19         1FFE10AC   00000000000000000000000000000000000000000000000000000000               Valid               
20         1FFE10C8   00000000000000000000000000000000000000000000000000000000               Valid               
21         1FFE10E4   00000000000000000000000000000000000000000000000000000000               Valid               
22         1FFE1100   00000000000000000000000000000000000000000000000000000000               Valid               
23         1FFE111C   00000000000000000000000000000000000000000000000000000000               Valid               
24         1FFE1138   00000000000000000000000000000000000000000000000000000000               Valid               
25         1FFE1154   00000000000000000000000000000000000000000000000000000000               Valid               
26         1FFE1170   00000000000000000000000000000000000000000000000000000000               Valid               
27         1FFE118C   00000000000000000000000000000000000000000000000000000000               Valid               
28         1FFE11A8   00000000000000000000000000000000000000000000000000000000               Valid               
29         1FFE11C4   00000000000000000000000000000000000000000000000000000000               Valid               
30         1FFE11E0   00000000000000000000000000000000000000000000000000000000               Valid               
31         1FFE11FC   00000000000000000000000000000000000000000000000000000000               Valid               
32         1FFE1218   00000000000000000000000000000000000000000000000000000000               Valid               
33         1FFE1234   00000000000000000000000000000000000000000000000000000000               Valid               
34         1FFE1250   00000000000000000000000000000000000000000000000000000000               Valid               
35         1FFE126C   00000000000000000000000000000000000000000000000000000000               Valid               
36         1FFE1288   00000000000000000000000000000000000000000000000000000000               Valid               
37         1FFE12A4   00000000000000000000000000000000000000000000000000000000               Valid               
38         1FFE12C0   00000000000000000000000000000000000000000000000000000000               Valid               
39         1FFE12DC   00000000000000000000000000000000000000000000000000000000               Valid               
40         1FFE12F8   00000000000000000000000000000000000000000000000000000000               Valid               
41         1FFE1314   00000000000000000000000000000000000000000000000000000000               Valid               
42         1FFE1330   00000000000000000000000000000000000000000000000000000000               Valid               
43         1FFE134C   00000000000000000000000000000000000000000000000000000000               Valid               
44         1FFE1368   00000000000000000000000000000000000000000000000000000000               Valid               
45         1FFE1384   00000000000000000000000000000000000000000000000000000000               Valid               
46         1FFE13A0   00000000000000000000000000000000000000000000000000000000               Valid               
47         1FFE13BC   00000000000000000000000000000000000000000000000000000000               Valid               
48         1FFE13D8   00000000000000000000000000000000000000000000000000000000               Valid               
49         1FFE13F4   00000000000000000000000000000000000000000000000000000000               Valid               
50         1FFE1410   00000000000000000000000000000000000000000000000000000000               Valid               
51         1FFE142C   00000000000000000000000000000000000000000000000000000000               Valid               
52         1FFE1448   00000000000000000000000000000000000000000000000000000000               Valid               
53         1FFE1464   00000000000000000000000000000000000000000000000000000000               Valid               
54         1FFE1480   00000000000000000000000000000000000000000000000000000000               Valid               
55         1FFE149C   00000000000000000000000000000000000000000000000000000000               Valid               
56         1FFE14B8   00000000000000000000000000000000000000000000000000000000               Valid               
57         1FFE14D4   00000000000000000000000000000000000000000000000000000000               Valid               
58         1FFE14F0   00000000000000000000000000000000000000000000000000000000               Valid               
59         1FFE150C   00000000000000000000000000000000000000000000000000000000               Valid               
60         1FFE1528   00000000000000000000000000000000000000000000000000000000               Valid               
61         1FFE1544   00000000000000000000000000000000000000000000000000000000               Valid               
62         1FFE1560   00000000000000000000000000000000000000000000000000000000               Valid               
63         1FFE157C   00000000000000000000000000000000000000000000000000000000               Valid               
64         1FFE1598   00000000000000000000000000000000000000000000000000000000               Valid               
65         1FFE15B4   00000000000000000000000000000000000000000000000000000000               Valid               
66         1FFE15D0   00000000000000000000000000000000000000000000000000000000               Valid               
67         1FFE15EC   00000000000000000000000000000000000000000000000000000000               Valid               
68         1FFE1608   00000000000000000000000000000000000000000000000000000000               Valid               
69         1FFE1624   00000000000000000000000000000000000000000000000000000000               Valid               
70         1FFE1640   00000000000000000000000000000000000000000000000000000000               Valid               
71         1FFE165C   00000000000000000000000000000000000000000000000000000000               Valid               
72         1FFE1678   00000000000000000000000000000000000000000000000000000000               Valid               
73         1FFE1694   00000000000000000000000000000000000000000000000000000000               Valid               
74         1FFE16B0   00000000000000000000000000000000000000000000000000000000               Valid               
75         1FFE16CC   00000000000000000000000000000000000000000000000000000000               Valid               
76         1FFE16E8   00000000000000000000000000000000000000000000000000000000               Valid               
77         1FFE1704   00000000000000000000000000000000000000000000000000000000               Valid               
78         1FFE1720   00000000000000000000000000000000000000000000000000000000               Valid               
79         1FFE173C   00000000000000000000000000000000000000000000000000000000               Valid               
80         1FFE1758   00000000000000000000000000000000000000000000000000000000               Valid               
81         1FFE1774   00000000000000000000000000000000000000000000000000000000               Valid               
82         1FFE1790   00000000000000000000000000000000000000000000000000000000               Valid               
83         1FFE17AC   00000000000000000000000000000000000000000000000000000000               Valid               
84         1FFE17C8   00000000000000000000000000000000000000000000000000000000               Valid               
85         1FFE17E4   00000000000000000000000000000000000000000000000000000000               Valid               
86         1FFE1800   00000000000000000000000000000000000000000000000000000000               Valid               
87         1FFE181C   00000000000000000000000000000000000000000000000000000000               Valid               
88         1FFE1838   00000000000000000000000000000000000000000000000000000000               Valid               
89         1FFE1854   00000000000000000000000000000000000000000000000000000000               Valid               
90         1FFE1870   00000000000000000000000000000000000000000000000000000000               Valid               
91         1FFE188C   00000000000000000000000000000000000000000000000000000000               Valid               
92         1FFE18A8   00000000000000000000000000000000000000000000000000000000               Valid               
93         1FFE18C4   00000000000000000000000000000000000000000000000000000000               Valid               
94         1FFE18E0   00000000000000000000000000000000000000000000000000000000               Valid               
95         1FFE18FC   00000000000000000000000000000000000000000000000000000000               Valid               
96         1FFE1918   00000000000000000000000000000000000000000000000000000000               Valid               
97         1FFE1934   00000000000000000000000000000000000000000000000000000000               Valid               
98         1FFE1950   00000000000000000000000000000000000000000000000000000000               Valid               
99         1FFE196C   00000000000000000000000000000000000000000000000000000000               Valid               
100        1FFE1988   00000000000000000000000000000000000000000000000000000000               Valid               
101        1FFE19A4   00000000000000000000000000000000000000000000000000000000               Valid               
102        1FFE19C0   00000000000000000000000000000000000000000000000000000000               Valid               
103        1FFE19DC   00000000000000000000000000000000000000000000000000000000               Valid               
104        1FFE19F8   00000000000000000000000000000000000000000000000000000000               Valid               
105        1FFE1A14   00000000000000000000000000000000000000000000000000000000               Valid               
106        1FFE1A30   00000000000000000000000000000000000000000000000000000000               Valid               
107        1FFE1A4C   00000000000000000000000000000000000000000000000000000000               Valid               
108        1FFE1A68   00000000000000000000000000000000000000000000000000000000               Valid               
109        1FFE1A84   00000000000000000000000000000000000000000000000000000000               Valid               
110        1FFE1AA0   00000000000000000000000000000000000000000000000000000000               Valid               
111        1FFE1ABC   00000000000000000000000000000000000000000000000000000000               Valid               
112        1FFE1AD8   00000000000000000000000000000000000000000000000000000000               Valid               
113        1FFE1AF4   00000000000000000000000000000000000000000000000000000000               Valid               
114        1FFE1B10   00000000000000000000000000000000000000000000000000000000               Valid               
115        1FFE1B2C   00000000000000000000000000000000000000000000000000000000               Valid               
116        1FFE1B48   00000000000000000000000000000000000000000000000000000000               Valid               
117        1FFE1B64   00000000000000000000000000000000000000000000000000000000               Valid               
118        1FFE1B80   00000000000000000000000000000000000000000000000000000000               Valid               
119        1FFE1B9C   00000000000000000000000000000000000000000000000000000000               Valid               
120        1FFE1BB8   00000000000000000000000000000000000000000000000000000000               Valid               
121        1FFE1BD4   00000000000000000000000000000000000000000000000000000000               Valid               
122        1FFE1BF0   00000000000000000000000000000000000000000000000000000000               Valid               
123        1FFE1C0C   00000000000000000000000000000000000000000000000000000000               Valid               
124        1FFE1C28   00000000000000000000000000000000000000000000000000000000               Valid               
125        1FFE1C44   00000000000000000000000000000000000000000000000000000000               Valid               
126        1FFE1C60   00000000000000000000000000000000000000000000000000000000               Valid               
127        1FFE1C7C   00000000000000000000000000000000000000000000000000000000               Valid               
128        1FFE1C98   00000000000000000000000000000000000000000000000000000000               Valid               
129        1FFE1CB4   00000000000000000000000000000000000000000000000000000000               Valid               
130        1FFE1CD0   00000000000000000000000000000000000000000000000000000000               Valid               
131        1FFE1CEC   00000000000000000000000000000000000000000000000000000000               Valid               
132        1FFE1D08   00000000000000000000000000000000000000000000000000000000               Valid               
133        1FFE1D24   00000000000000000000000000000000000000000000000000000000               Valid               
134        1FFE1D40   00000000000000000000000000000000000000000000000000000000               Valid               
135        1FFE1D5C   00000000000000000000000000000000000000000000000000000000               Valid               
136        1FFE1D78   00000000000000000000000000000000000000000000000000000000               Valid               
137        1FFE1D94   00000000000000000000000000000000000000000000000000000000               Valid               
138        1FFE1DB0   00000000000000000000000000000000000000000000000000000000               Valid               
139        1FFE1DCC   00000000000000000000000000000000000000000000000000000000               Valid               
140        1FFE1DE8   00000000000000000000000000000000000000000000000000000000               Valid               
141        1FFE1E04   00000000000000000000000000000000000000000000000000000000               Valid               
142        1FFE1E20   00000000000000000000000000000000000000000000000000000000               Valid               
143        1FFE1E3C   00000000000000000000000000000000000000000000000000000000               Valid               
144        1FFE1E58   00000000000000000000000000000000000000000000000000000000               Valid               
145        1FFE1E74   00000000000000000000000000000000000000000000000000000000               Valid               
146        1FFE1E90   00000000000000000000000000000000000000000000000000000000               Valid               
147        1FFE1EAC   00000000000000000000000000000000000000000000000000000000               Valid               
148        1FFE1EC8   0000000000000000                                                       Valid               
149        00000000   0010000099070000                                                       Valid               
150        00000400   FFFFFFFFFFFFFFFFFFFFFFFFFEFFFFFFD01EFE1F98070000B9080000               Valid               
151        0000041C   670F00006D0F0000730F0000790F0000000000000000000000000000               Valid               
152        00000438   000000007F0F0000C50F000000000000CB0F0000D10F0000D70F0000               Valid               
153        00000454   D70F0000D70F0000D70F0000D70F0000D70F0000D70F0000D70F0000               Valid               
154        00000470   D70F0000D70F0000D70F0000D70F0000D70F0000D70F0000D70F0000               Valid               
155        0000048C   D70F0000D70F0000D70F0000D70F0000D70F0000D70F0000D70F0000               Valid               
156        000004A8   D70F0000D70F0000D70F0000D70F0000D70F0000D70F0000D70F0000               Valid               
157        000004C4   D70F0000D70F0000D70F0000D70F0000D70F0000D70F0000D70F0000               Valid               
158        000004E0   D70F0000D70F0000D70F0000D70F0000D70F0000D70F0000D70F0000               Valid               
159        000004FC   D70F0000D70F0000D70F0000D70F0000D70F0000D70F0000D70F0000               Valid               
160        00000518   D70F0000D70F0000D70F0000D70F0000D70F0000D70F0000D70F0000               Valid               
161        00000534   D70F0000D70F0000D70F0000D70F0000D70F0000D70F0000D70F0000               Valid               
162        00000550   D70F0000D70F0000D70F0000D70F0000D70F0000D70F0000D70F0000               Valid               
163        0000056C   D70F0000D70F0000D70F0000D70F0000D70F0000D70F0000D70F0000               Valid               
164        00000588   D70F0000D70F0000D70F0000D70F0000D70F0000D70F0000D70F0000               Valid               
165        000005A4   D70F0000D70F0000D70F0000D70F0000D70F0000D70F0000D70F0000               Valid               
166        000005C0   D70F0000D70F0000D70F0000D70F0000D70F0000D70F0000D70F0000               Valid               
167        000005DC   D70F0000D70F0000D70F0000D70F0000D70F0000D70F0000D70F0000               Valid               
168        000005F8   D70F0000D70F0000D70F0000D70F0000D70F0000D70F0000D70F0000               Valid               
169        00000614   D70F0000D70F0000D70F0000D70F0000D70F0000D70F0000D70F0000               Valid               
170        00000630   D70F0000D70F0000D70F0000D70F0000D70F0000D70F0000D70F0000               Valid               
171        0000064C   D70F0000D70F0000D70F0000D70F0000D70F0000D70F0000D70F0000               Valid               
172        00000668   D70F0000D70F0000D70F0000D70F0000D70F0000D70F0000D70F0000               Valid               
173        00000684   D70F0000D70F0000D70F0000D70F0000D70F0000D70F0000D70F0000               Valid               
174        000006A0   D70F0000D70F0000D70F0000D70F0000D70F0000D70F0000D70F0000               Valid               
175        000006BC   D70F0000D70F0000D70F0000D70F0000D70F0000D70F0000D70F0000               Valid               
176        000006D8   D70F0000D70F0000D70F0000D70F0000D70F0000D70F0000D70F0000               Valid               
177        000006F4   D70F0000D70F0000D70F0000D70F0000D70F0000D70F0000D70F0000               Valid               
178        00000710   D70F0000D70F0000D70F0000D70F0000D70F0000D70F0000D70F0000               Valid               
179        0000072C   D70F0000D70F0000D70F0000D70F0000D70F0000D70F0000D70F0000               Valid               
180        00000748   D70F0000D70F0000D70F0000D70F0000D70F0000D70F0000D70F0000               Valid               
181        00000764   D70F0000D70F0000D70F0000D70F0000D70F0000D70F0000D70F0000               Valid               
182        00000780   D70F0000D70F0000D70F0000D70F0000D70F0000D70F000000200021               Valid               
183        0000079C   0022002300240025002600272A482B4901602B4880F308882A482B49               Valid               
184        000007B8   2B4A2C4B2C4C2D4D01601360256000F07BF82B4A2B4C00231360121D               Valid               
185        000007D4   A242FBD3294A2A4C00231360121D641E002CFADC274B284A284C1568               Valid               
186        000007F0   2560121D241D5B1E002BF8DC254B264A264C15682560121D241D5B1E               Valid               
187        0000080C   002BF8DC234B244A244C15682560121D241D5B1E002BF8DC214B224A               Valid               
188        00000828   224C15682560121D241D5B1E002BF8DC00F052FD05F06CFC00BF01BE               Valid               
189        00000844   FEE7EFF314807047EFF30580704700BF08ED00E00000FE1FD01EFE1F               Valid               
190        00000860   0420054020C528D908200540FFFF000000200540202100000000FE1F               Valid               
191        0000087C   00F00120D01EFE1F0000000023000000987F00008803FE1F00000000               Valid               
192        00000898   24800000D01EFE1F00000000987F00008803FE1FE200000010040000               Valid               
193        000008B4   0000FE1F00B584B0FEE7000000B5002000F08AFB164A106850F00100               Valid               
194        000008D0   1060154A4FF07731106830F47F001060500601600021016241628162               Valid               
195        000008EC   C162016441648164C164016541658165C16501660A4A41668166C166               Valid               
196        00000908   106830F4007010604FF008501060012000F0FBFC002000F0F8FC00BD               Valid               
197        00000924   14ED00E020ED00E00C0008E0B0B5494B9960D86080B179B1002409E0               Valid               
198        00000940   35B155F824501DB11A882D8852191A800134A4B2028845689442F1D3               Valid               
199        0000095C   00221CE09007440F7FF0030717FA04F0D4F10804274107439408085D               Valid               
200        00000978   3840085518888018013030F00305441B64000325A5408410085D2843               Valid               
201        00000994   0855013292B218888242DFD38207520F032393408208885C18438854               Valid               
202        000009B0   B0BDF0B582B0284CE0680090002840D000252E4639E05168A9B351F8               Valid               
203        000009CC   260090B3019000272BE0516829B351F8270010B301212171804700F0               Valid               
204        000009E8   D9FF2079022100B10121A807400F11FA00F3A168AA08885C18438854               Valid               
205        00000A04   2179022001B1012021886918013131F00303CA1A52009040A2688B10               Valid               
206        00000A20   D15C8143D1540135ADB20137BFB2019A10888742CFD30136B6B2009A               Valid               
207        00000A3C   10888642C1D302B0F0BD08B904490870704708B902490870704700BF               Valid               
208        00000A58   2804FE1F2C04FE1F000010B5034CA37062702170A080002010BD0000               Valid               
209        00000A74   3804FE1FF0B581B000900E46224D234C17462978814205D16168B142               Valid               
210        00000A90   02D1A16891420ED00098314600F03AF830B90121009A21702A706660               Valid               
211        00000AAC   A76003E00021217000E0002001B0F0BD000070B50446134EF0203578               Valid               
212        00000AC8   012D02D1204600F06EF870BD10B5521804E003685C1C046014781C70               Valid               
213        00000AE4   013A4B1E9342F6D110BD10B5521805E00268541C046012781A701A46               Valid               
214        00000B00   531E4A1E9342F5D110BD00BF8803FE1F5004FE1F00B500F0C7F830B9               Valid               
215        00000B1C   00F0EDF900F04FF808B900F07DF800BDF0B505460F468C1C0E180220               Valid               
216        00000B38   00F0DFF9384600F0DCF904E02878241800F0D7F90135E4B2B542F7D1               Valid               
217        00000B54   204600F0D0F9032000F0CDF9F0BD70B505460C4600F0A8F90228FBD1               Valid               
218        00000B70   00F0A4F9A04201D9122017E0841C461904E000F09BF9287024180135               Valid               
219        00000B8C   E4B2B542F7D100F093F9844201D0112006E0102400F08CF9032800D1               Valid               
220        00000BA8   0024204670BD30B514461D46FFF7BAFF29462046FFF7D1FF30BD10B5               Valid               
221        00000BC4   86B0364804AC0290019403208DF80C006B465A20D870324903200222               Valid               
222        00000BE0   088001A8FFF776FF69460331481C0122FFF770FF20460621FFF798FF               Valid               
223        00000BFC   00246846023000F065F928B9694602A88978005D814201D0132003E0               Valid               
224        00000C18   0134052CEFD3002006B010BD10B585B06B460220D8701D4901AB0620               Valid               
225        00000C34   187003AC00205870029408200880181D0222FFF745FF69460331481D               Valid               
226        00000C50   0122FFF73FFF01A902A80122FFF73AFF0DF1050102A80122FFF734FF               Valid               
227        00000C6C   20460521FFF75CFF0DF107000121FFF772FF01AB987058B9D81C0290               Valid               
228        00000C88   411E02A80122FFF72EFF9DF80600012800D1142005B010BD02010003               Valid               
229        00000CA4   5C04FE1F042825D2984B1A611860984A996012EB0031D9605115CA1C               Valid               
230        00000CC0   012805D306D0032809D30ED0012015E0914800E09148026004380160               Valid               
231        00000CDC   0CE010468F4A1060043A116006E08E4940F203300860033804390860               Valid               
232        00000CF8   00F02DB870478A490160002070478949016000207047884A11680160               Valid               
233        00000D14   0020704710B581B0044685490868C00714D56846FFF7F1FF80B9824A               Valid               
234        00000D30   00991068C0F302200130B1FBF0F11068C0F304401030484340082060               Valid               
235        00000D4C   002000E0032001B010BDB0B582B0784C2069C0F30361684601296AD3               Valid               
236        00000D68   0ED0032903D305D0062906D063E0FFF7C6FF07E0FFF7BFFF04E0FFF7               Valid               
237        00000D84   C9FF01E0FFF7C1FF002856D120695F4DC0F3034000990130B1FBF0F0               Valid               
238        00000DA0   68602069286868B965490868400051D50868C0F30260012841D325D0               Valid               
239        00000DBC   032829D32ED01EE001280DD15E490868400041D50868C0F302600128               Valid               
240        00000DD8   31D315D0032819D31ED00EE0022835D157490868400031D50868C0F3               Valid               
241        00000DF4   0260012821D305D0032809D30ED0062812D01AE001A8FFF780FFB0B9               Valid               
242        00000E10   4E4910E001A8FFF776FF80B94C490AE001A8FFF76CFF50B94A4904E0               Valid               
243        00000E2C   01A8FFF773FF20B9484908684005400F01D103203AE00868C0F30220               Valid               
244        00000E48   411E012088400199B1FBF0F3E86802278168394381608168B9438160               Valid               
245        00000E64   4FF4002182698A43826184694A1094438461846934F0100484618469               Valid               
246        00000E80   BC43846100244462AC68B3FBF4F3642463431B09B3FBF4F5036965F3               Valid               
247        00000E9C   0C03036103690F2464F31C63036183690B4383618169114381610020               Valid               
248        00000EB8   02B0B0BD274A1168080004D048698002FCD5C869C0B27047234A1168               Valid               
249        00000ED4   926852B13223B1FBF3F153699B0201D40139FAD119B9202004E02120               Valid               
250        00000EF0   02E0D169017000207047184A116829B1CA690243CA6148694002FCD5               Valid               
251        00000F0C   704700BF6004FE1F00A0064004A0044024B004401CC0044038C00440               Valid               
252        00000F28   006CDC0200127A007004FE1F004606400846064000400640A8510640               Valid               
253        00000F44   AC510640B0510640044106400442064004430640044606406C04FE1F               Valid               
254        00000F60   6404FE1F704700B584B0FEE700B584B0FEE700B584B0FEE700B584B0               Valid               
255        00000F7C   FEE71EF0040F0CBFEFF30880EFF3098000F001B87047806902380078               Valid               
256        00000F98   01280BD306D003280CD30ED1102080F311880AE0012080F3148806E0               Valid               
257        00000FB4   002080F3148802E0002080F31188704700B584B0FEE700B584B0FEE7               Valid               
258        00000FD0   00B584B0FEE700B584B0FEE70349044A08431060704710B5044603E0               Valid               
259        00000FEC   0000FA050CED00E000DF04F01F0001228240600981000348C9B20818               Valid               
260        00001008   01681143016001E000E100E001DF10BD30B504460D4600DF084904F0               Valid               
261        00001024   FC0212F540704018A107C90E15FA01F2FF238B40D943036819401143               Valid               
262        00001040   016001E000E100E001DF30BD4C4841F2883101E00168013901600168               Valid               
263        0000105C   0029F9D8704710B5474C03E0FFF7F0FF20680138206020680028F7D8               Valid               
264        00001078   10BD45F6FF71002000E001308842FCD3704700F059B9000000B53D49               Valid               
265        00001094   632000F065F9F021632000F059F93A49652000F05DF9F021652000F0               Valid               
266        000010B0   51F937496B2000F055F9F0216B2000F049F93449702000F04DF9F021               Valid               
267        000010CC   702000F041F93149752000F045F9F021752000F039F92E49682000F0               Valid               
268        000010E8   3DF9F021682000F031F92B496E2000F035F9F0216E2000F029F92849               Valid               
269        00001104   742000F02DF9F021742000F021F925497A2000F025F9F0217A2000F0               Valid               
270        00001120   19F900BD10B5214940F24220204A886240F242635062CB600B611E4C               Valid               
271        0000113C   40F2424323600860106050601B4C4FF4A07020601A4C206850F48070               Valid               
272        00001158   206010BD00B500F00FF9FFF7DFFFFFF793FFFFF78EFF144A4FF41651               Valid               
273        00001174   0120FFF77FFC00B1FEE700BD7404FE1F7804FE1FCD730000E9730000               Valid               
274        00001190   0F740000357400005B740000057400002B7400005174000077740000               Valid               
275        000011AC   14C0044020A0044010D0044020D0044014F10F40006CDC0200000000               Valid               
276        000011C8   4448002104E001684900016041680131416041680029F6D03D490868               Valid               
277        000011E4   0130086070473C48002104E001684900016041680131416041680029               Valid               
278        00001200   F6D0354948680130486070473348002104E001684900016041680131               Valid               
279        0000121C   416041680029F6D02C4988680130886070472B48002104E001684900               Valid               
280        00001238   016041680131416041680029F6D02449C8680130C860704722480021               Valid               
281        00001254   04E001684900016041680131416041680029F6D01B49086901300861               Valid               
282        00001270   70471A48002104E001684900016041680131416041680029F6D01349               Valid               
283        0000128C   48690130486170471148002104E00168490001604168013141604168               Valid               
284        000012A8   0029F6D00A4988690130886170470948002104E00168490001604168               Valid               
285        000012C4   0131416041680029F6D00249C8690130C86170478404FE1F7C04FE1F               Valid               
286        000012E0   01DF704710B5FFF7AEFA0446FFF7AEFAE10701D5000601D0002001E0               Valid               
287        000012FC   00DF012010BD10B50C46012800D101DF204610BD000080B90B484FF0               Valid               
288        00001318   A0610160016851F00041016001680029FCD4016851F0010101600020               Valid               
289        00001334   02E00128FBD001207047000006E000BF002008E0042008E0082008E0               Valid               
290        00001350   02DF704710B50446FFF75EFE2046FFF742FE10BD30B504460D4600DF               Valid               
291        0000136C   0248036813EB84031D6401E008ED00E001DF30BD30B500DF84490020               Valid               
292        00001388   087084498448086000204860834A10680002FBD4012010601068C001               Valid               
293        000013A4   FCD580497D480860012048607E4A10680002FBD4012010601068C001               Valid               
294        000013C0   FCD57B497B480860242048607A4A10680002FBD4052010601068C001               Valid               
295        000013DC   FCD5774977480860774A106810F40000FAD1106075496B4808604FF4               Valid               
296        000013F8   80204860012010601068C001FCD56D4D7048286070486860704D7148               Valid               
297        00001414   28607148714902680A400260C2680A40C26002690A40026142690A40               Valid               
298        00001430   426182690A4082616A4A13680B40136053680B40536093680B409360               Valid               
299        0000144C   D3680B40D36093690B409361D3690B40D361D36A0B40D362136B0B40               Valid               
300        00001468   1363536B0B405363936B0B409363D36B0B40D363136C0B401364936C               Valid               
301        00001484   0B409364536D0B405365936F0B409367D36F0B40D367534B1C680C40               Valid               
302        000014A0   1C605C680C405C609C680C409C605C6A0C405C629C6A0C409C62DC6B               Valid               
303        000014BC   0C40DC639C6D0C409C65DC6E0C40DC661C6F0C401C67DC6F454D0C40               Valid               
304        000014D8   DC672C680C402C60434D2C680C402C60424D2C680C402C60414D2C68               Valid               
305        000014F4   0C402C60404D2C680C402C603F4D2C680C402C603E4D2C680C402C60               Valid               
306        00001510   3D4D2C680C402C603C4D2C680C404FF086412C600160C16001614161               Valid               
307        0000152C   8161116051609160D1609161D161D162116351639163D16311649164               Valid               
308        00001548   51659167D16719605960996059629962D9639965234DD9661967D967               Valid               
309        00001564   2960224D2960224D2960224D2960224D2960224D2960224D2960224D               Valid               
310        00001580   2960224D2960224D4FF400702860214D2148286042E000BF04D00740               Valid               
311        0000159C   04430640010200000043064004420640004206400441064001010100               Valid               
312        000015B8   00410640144006400100010300460640044606400100010603000102               Valid               
313        000015D4   1C4006401300000684500640FFFFFFBFAC5006402C510640AC510640               Valid               
314        000015F0   B0510640B8510640BC510640C0510640C4510640CC510640D8510640               Valid               
315        0000160C   E451064010D0044000D000400052810001DF002030BD00000749084A               Valid               
316        00001628   01200B8813B9137803B9184600230B80137000280CBF012000207047               Valid               
317        00001644   4604FE1F4404FE1F30B50C490C4A0D4B0C8801203CB914782CB91C78               Valid               
318        00001660   1CB90A4D2C7804B9204600240C80074914701C700C7000280CBF0120               Valid               
319        0000167C   002030BD3C04FE1F3804FE1F3904FE1F3A04FE1F20B5044D2868E0B9               Valid               
320        00001698   FFF724FE012808D102E000BF0805FE1FEFF310800146012003E0EFF3               Valid               
321        000016B4   108001460020FFF722FE034A106040F30000013003D001E00405FE1F               Valid               
322        000016D0   03DF28680130286020BD20B5034D2868D8B9FFF7FFFD012807D101E0               Valid               
323        000016EC   1005FE1FEFF310800146012003E0EFF3108001460020FFF7FEFD034A               Valid               
324        00001708   106040F30000013003D001E00C05FE1F03DF28680130286020BD20B5               Valid               
325        00001724   034D2868D8B9FFF7DBFD012807D101E01805FE1FEFF3108001460120               Valid               
326        00001740   03E0EFF3108001460020FFF7DAFD034A106040F30000013003D001E0               Valid               
327        0000175C   1405FE1F03DF28680130286020BD20B5034D2868D8B9FFF7B7FD0128               Valid               
328        00001778   07D101E02005FE1FEFF310800146012003E0EFF3108001460020FFF7               Valid               
329        00001794   B6FD034A106040F30000013003D001E01C05FE1F03DF286801302860               Valid               
330        000017B0   20BD20B5034D2868D8B9FFF793FD012807D101E02805FE1FEFF31080               Valid               
331        000017CC   0146012003E0EFF3108001460020FFF792FD034A106040F300000130               Valid               
332        000017E8   03D001E02405FE1F03DF28680130286020BD20B5034D2868D8B9FFF7               Valid               
333        00001804   6FFD012807D101E03005FE1FEFF310800146012003E0EFF310800146               Valid               
334        00001820   0020FFF76EFD034A106040F30000013003D001E02C05FE1F03DF2868               Valid               
335        0000183C   0130286020BD20B5034D2868D8B9FFF74BFD012807D101E03805FE1F               Valid               
336        00001858   EFF310800146012003E0EFF3108001460020FFF74AFD034A106040F3               Valid               
337        00001874   0000013003D001E03405FE1F03DF28680130286020BD064841680139               Valid               
338        00001890   4160016841F30001013106D0406820B902E000BF0405FE1F02DF7047               Valid               
339        000018AC   0649074B0A68013A0A601A6842F30002013208D0086830B904E000BF               Valid               
340        000018C8   1005FE1F0C05FE1F02DF70470649074B0A68013A0A601A6842F30002               Valid               
341        000018E4   013208D0086830B904E000BF1805FE1F1405FE1F02DF70470649074B               Valid               
342        00001900   0A68013A0A601A6842F30002013208D0086830B904E000BF2005FE1F               Valid               
343        0000191C   1C05FE1F02DF70470649074B0A68013A0A601A6842F30002013208D0               Valid               
344        00001938   086830B904E000BF2805FE1F2405FE1F02DF70470649074B0A68013A               Valid               
345        00001954   0A601A6842F30002013208D0086830B904E000BF3005FE1F2C05FE1F               Valid               
346        00001970   02DF70470649074B0A68013A0A601A6842F30002013208D0086830B9               Valid               
347        0000198C   04E000BF3805FE1F3405FE1F02DF704730B5C94C206800280CBF0120               Valid               
348        000019A8   0020FFF74CF8C64D286800280CBF01200020FFF744F8C34908680028               Valid               
349        000019C4   0CBF01200020FFF73CF8C049086800280CBF01200020FFF734F8BD49               Valid               
350        000019E0   086800280CBF01200020FFF72CF8BA49086800280CBF01200020FFF7               Valid               
351        000019FC   24F8B749086800280CBF01200020FFF71CF8B449086800280CBF0120               Valid               
352        00001A18   0020FFF714F8B149086800280CBF01200020FFF70CF8AE4908680028               Valid               
353        00001A34   0CBF01200020FFF704F8AB49086800280CBF01200020FEF7FCFFA849               Valid               
354        00001A50   086800280CBF01200020FEF7F4FFA549086800280CBF01200020FEF7               Valid               
355        00001A6C   ECFFA249086800280CBF01200020FEF7E4FF9F49086800280CBF0120               Valid               
356        00001A88   0020FEF7DCFF9C49086800280CBF01200020FEF7D4FF994908680028               Valid               
357        00001AA4   0CBF01200020FEF7CCFF9649086800280CBF01200020FEF7C4FF9349               Valid               
358        00001AC0   086800280CBF01200020FEF7BCFF9049086800280CBF01200020FEF7               Valid               
359        00001ADC   B4FF8D49086800280CBF01200020FEF7ACFF8A49086800280CBF0120               Valid               
360        00001AF8   0020FEF7A4FF8749086800280CBF01200020FEF79CFF844908680028               Valid               
361        00001B14   0CBF01200020FEF794FF8149086800280CBF01200020FEF78CFF7E49               Valid               
362        00001B30   086800280CBF01200020FEF784FF7B49086800280CBF01200020FEF7               Valid               
363        00001B4C   7CFF7849086800280CBF01200020FEF774FF7549086800280CBF0120               Valid               
364        00001B68   0020FEF76CFF7249086800280CBF01200020FEF764FF6F4908680028               Valid               
365        00001B84   0CBF01200020FEF75CFF6C49086800280CBF01200020FEF754FF6949               Valid               
366        00001BA0   086800280CBF01200020FEF74CFF6649086800280CBF01200020FEF7               Valid               
367        00001BBC   44FF6349086800280CBF01200020FEF73CFF6049086800280CBF0120               Valid               
368        00001BD8   0020FEF734FF5D49086800280CBF01200020FEF72CFF5A4908680028               Valid               
369        00001BF4   0CBF01200020FEF724FF5749086800280CBF01200020FEF71CFF5449               Valid               
370        00001C10   086800280CBF01200020FEF714FF5149086800280CBF01200020FEF7               Valid               
371        00001C2C   0CFF4E49086800280CBF01200020FEF704FF4B49086800280CBF0120               Valid               
372        00001C48   0020FEF7FCFE4849086800280CBF01200020FEF7F4FE454908680028               Valid               
373        00001C64   0CBF01200020FEF7ECFE4249086800280CBF01200020FEF7E4FE3F49               Valid               
374        00001C80   086800280CBF01200020FEF7DCFE3C49086800280CBF01200020FEF7               Valid               
375        00001C9C   D4FE3949086800280CBF01200020FEF7CCFE3649086800280CBF0120               Valid               
376        00001CB8   0020FEF7C4FE3349086865E00805FE1F1005FE1F1805FE1F2005FE1F               Valid               
377        00001CD4   2805FE1F3005FE1F3805FE1F4005FE1F4805FE1F5005FE1F5805FE1F               Valid               
378        00001CF0   6005FE1F6805FE1F7005FE1F7805FE1F8005FE1F8805FE1F9005FE1F               Valid               
379        00001D0C   9805FE1FA005FE1FA805FE1FB005FE1FB805FE1FC005FE1FC805FE1F               Valid               
380        00001D28   D005FE1FD805FE1FE005FE1FE805FE1FF005FE1FF805FE1F0006FE1F               Valid               
381        00001D44   0806FE1F1006FE1F1806FE1F2006FE1F2806FE1F3006FE1F3806FE1F               Valid               
382        00001D60   4006FE1F4806FE1F5006FE1F5806FE1F6006FE1F6806FE1F7006FE1F               Valid               
383        00001D7C   7806FE1F8006FE1F8806FE1F9006FE1F9806FE1F00280CBF01200020               Valid               
384        00001D98   FEF755FE7849086800280CBF01200020FEF74DFE7549086800280CBF               Valid               
385        00001DB4   01200020FEF745FE7249086800280CBF01200020FEF73DFE6F490868               Valid               
386        00001DD0   00280CBF01200020FEF735FE6C49086800280CBF01200020FEF72DFE               Valid               
387        00001DEC   6949086800280CBF01200020FEF725FE6649086800280CBF01200020               Valid               
388        00001E08   FEF71DFE6349086800280CBF01200020FEF715FE6049086800280CBF               Valid               
389        00001E24   01200020FEF70DFE5D49086800280CBF01200020FEF705FE5A490868               Valid               
390        00001E40   00280CBF01200020FEF7FDFD5749086800280CBF01200020FEF7F5FD               Valid               
391        00001E5C   5449086800280CBF01200020FEF7EDFD5149086800280CBF01200020               Valid               
392        00001E78   FEF7E5FD4E4900202060286008604D4908604D4908604D4908604D49               Valid               
393        00001E94   08604D4908604D4908604D4908604D4908604D4908604D4908604D49               Valid               
394        00001EB0   08604D4908604D4908604D4908604D4908604D4908604D4908604D49               Valid               
395        00001ECC   08604D4908604D4908604D4908604D4908604D4908604D4908604D49               Valid               
396        00001EE8   08604D4908604D4908604D4908604D4908604D4908604D4908604D49               Valid               
397        00001F04   08604D4908604D4908604D4908604D4908604D4908604D4908604D49               Valid               
398        00001F20   08604D4908604D4908604D4908604D4908604D4908604D4908604D49               Valid               
399        00001F3C   08604D4908604D4908600E4908600E4908600E4908600E4908600E49               Valid               
400        00001F58   08600E4908600E4908600E4908600E4908600E4908600E4908600E49               Valid               
401        00001F74   08600E4908600E49086030BDA006FE1FA806FE1FB006FE1FB806FE1F               Valid               
402        00001F90   C006FE1FC806FE1FD006FE1FD806FE1FE006FE1FE806FE1FF006FE1F               Valid               
403        00001FAC   F806FE1F0007FE1F0807FE1F1805FE1F2005FE1F2805FE1F3005FE1F               Valid               
404        00001FC8   3805FE1F4005FE1F4805FE1F5005FE1F5805FE1F6005FE1F6805FE1F               Valid               
405        00001FE4   7005FE1F7805FE1F8005FE1F8805FE1F9005FE1F9805FE1FA005FE1F               Valid               
406        00002000   A805FE1FB005FE1FB805FE1FC005FE1FC805FE1FD005FE1FD805FE1F               Valid               
407        0000201C   E005FE1FE805FE1FF005FE1FF805FE1F0006FE1F0806FE1F1006FE1F               Valid               
408        00002038   1806FE1F2006FE1F2806FE1F3006FE1F3806FE1F4006FE1F4806FE1F               Valid               
409        00002054   5006FE1F5806FE1F6006FE1F6806FE1F7006FE1F7806FE1F8006FE1F               Valid               
410        00002070   8806FE1F9006FE1F9806FE1FF0B581B0D64F0021384604F0C8F8D54A               Valid               
411        0000208C   1678082E00D9082604F083FA384604F0A0FCFFF7D5FAFEF7D4FCFFF7               Valid               
412        000020A8   BDFAFEF7D0FCCD4804F030FB00246AE0E5B22946384604F0ACF8C94B               Valid               
413        000020C4   1888C94B010018BF01211A88003A0CBF002101F0010147F6FF728242               Valid               
414        000020E0   8CBF01220022114026D0C14A1178012904BFC0F5004080B2002104F0               Valid               
415        000020FC   70FB2146002004F019F87FF00501002204F06DFBE0B2002104F0F3FA               Valid               
416        00002118   0521002004F0FDFA012004F000FB00280CBF01200020FEF78EFC04F0               Valid               
417        00002134   17FB23E0284604F0E0FAAC4A1178A94A01294FF40041108803D18842               Valid               
418        00002150   03D0002002E08842FBD00120002104F039FB0A21002004F0D8FA0120               Valid               
419        0000216C   04F01AFB00280CBF01200020FEF769FC04F002FB00060CBF01200020               Valid               
420        00002188   FEF761FC0134B44292D300240BE0E1B20091384604F03DF8051E03D1               Valid               
421        000021A4   0098002104F03EFC0134B442F1D3FFF74BFAFEF74AFCFFF733FAFEF7               Valid               
422        000021C0   46FC884804F0A6FA002429E0E1B20091384604F022F8054600980021               Valid               
423        000021DC   04F08FFAEDB9834A01201178012900D12846294604F0F0FA0A212846               Valid               
424        000021F8   04F08FFA012004F0D1FA00280CBF01200020FEF720FC04F0B9FA0006               Valid               
425        00002214   0CBF01200020FEF718FC0134B442D3D300240BE0E1B20091384603F0               Valid               
426        00002230   F4FF051E03D16F49009804F0F5FB0134B442F1D3FFF702FAFEF701FC               Valid               
427        0000224C   FFF7EAF9FEF7FDFB634804F05DFA002434E0E1B2384603F0DAFF614A               Valid               
428        00002268   108860B35DBB604A60481178012901D147F6B960294604F0AEFA2146               Valid               
429        00002284   284603F057FF7FF005012A4604F0ABFAE0B2294604F031FA05212846               Valid               
430        000022A0   04F03BFA012004F03EFA00280CBF01200020FEF7CCFB04F055FA0006               Valid               
431        000022BC   0CBF01200020FEF7C4FB0134B442C8D300240AE0E1B20091384603F0               Valid               
432        000022D8   A0FF18B94649009804F0A2FB0134B442F2D3FFF7AFF9FEF7AEFBFFF7               Valid               
433        000022F4   97F9FEF7AAFB3A4804F00AFA002435E0E1B2384603F087FF374A0546               Valid               
434        00002310   108860B35DBB364A37481178012901D147F23430294604F05AFA2146               Valid               
435        0000232C   284603F003FF7FF005012A4604F057FAE0B2294604F0DDF905212846               Valid               
436        00002348   04F0E7F9012004F0EAF900280CBF01200020FEF778FB04F001FA0006               Valid               
437        00002364   0CBF01200020FEF770FB0134B442C7D300240AE0E1B20091384603F0               Valid               
438        00002380   4CFF18B91D49009804F04EFB0134B442F2D3FFF75BF9FEF75AFBFFF7               Valid               
439        0000239C   43F9FEF756FB104804F0B6F9002442E0E1B2384603F033FF0D4A0546               Valid               
440        000023B8   1088C8B3290037D10E4804F00CFA2146284603F0B5FE7FF005012A46               Valid               
441        000023D4   04F009FAE0B211E0B08500000F07FE1F80F0FA021207FE1F1007FE1F               Valid               
442        000023F0   0C07FE1F47010000CC0C000000400000294604F07CF90521284604F0               Valid               
443        0000240C   86F9012004F089F900280CBF01200020FEF717FB04F0A0F900060CBF               Valid               
444        00002428   01200020FEF70FFB0134B442BAD300240AE0E1B20091384603F0EBFE               Valid               
445        00002444   18B96649009804F0EDFA0134B442F2D3FFF7FAF8FEF7F9FAFFF7E2F8               Valid               
446        00002460   FEF7F5FA5F4804F055F9002435E0E1B2384603F0D2FE5C4A05461088               Valid               
447        0000247C   60B35DBB5A4A57481178012901D14FF4A470294604F0A5F921462846               Valid               
448        00002498   03F04EFE7FF005012A4604F0A2F9E0B2294604F028F90521284604F0               Valid               
449        000024B4   32F9012004F035F900280CBF01200020FEF7C3FA04F04CF900060CBF               Valid               
450        000024D0   01200020FEF7BBFA0134B442C7D300240BE0E1B20091384603F097FE               Valid               
451        000024EC   20B94FF40041009804F098FA0134B442F1D3FFF7A5F8FEF7A4FAFFF7               Valid               
452        00002508   8DF8FEF7A0FA354804F000F9002429E0E1B20091384603F07CFE0546               Valid               
453        00002524   0098002104F0E9F828001CD12E4A1178012900D10846294604F04AF9               Valid               
454        00002540   0A21284604F0E9F8012004F02BF900280CBF01200020FEF77AFA04F0               Valid               
455        0000255C   13F900060CBF01200020FEF772FA0134B442D3D304F04CFAFFF76AF8               Valid               
456        00002578   FEF769FAFFF752F8FEF765FA174804F0C5F8002412E0E5B229463846               Valid               
457        00002594   03F041FE2146284604F0AFF8134A2946107804F015F90A21284604F0               Valid               
458        000025B0   B4F80134B442EAD3304604F0F3F800280CBF01200020FEF742FA04F0               Valid               
459        000025CC   DBF800060CBF01200020FEF73AFA01B0F0BD00BFB87E000080F0FA02               Valid               
460        000025E8   1007FE1F0C07FE1F0D07FE1FF0B5694D0021284603F00DFE674A1478               Valid               
461        00002604   082C00D9082403F0C8FF284604F0E5F9FFF71AF8FEF719FAFFF702F8               Valid               
462        00002620   FEF715FA5F4804F075F8002643E0F1B2284603F0F2FD5C4B18885C4B               Valid               
463        0000263C   010018BF01211A88003A0CBF002101F00101584A82428CBF01220022               Valid               
464        00002658   11402BD0554A1178012902D15249081A80B2002104F0B7F831460020               Valid               
465        00002674   03F060FD7FF00501002204F0B4F8F0B2002104F03AF86421002004F0               Valid               
466        00002690   44F8012004F047F800280CBF01200020FEF7D5F904F05EF800060CBF               Valid               
467        000026AC   01200020FEF7CDF90136A642B9D3002603E0F0B204F0ECF90136A642               Valid               
468        000026C8   F9D3FEF7BFFFFEF7BEF9FEF7A7FFFEF7BAF9324804F01AF8002612E0               Valid               
469        000026E4   F7B23946284603F096FD3146384604F004F8304A3946107804F06AF8               Valid               
470        00002700   0A21384604F009F80136A642EAD3204604F048F800280CBF01200020               Valid               
471        0000271C   FEF797F904F030F800060CBF01200020FEF78FF904F06CF9FEF78AFF               Valid               
472        00002738   FEF789F9FEF772FFFEF785F9174803F0E5FF002612E0F7B239462846               Valid               
473        00002754   03F061FD3146384603F0CFFF154A3946107804F035F80A21384603F0               Valid               
474        00002770   D4FF0136A642EAD3204604F013F800280CBF01200020FEF762F903F0               Valid               
475        0000278C   FBFF00060CBF01200020FEF75AF9F0BDB08500000F07FE1F80F0FA02               Valid               
476        000027A8   1207FE1F1007FE1FFF7F00000C07FE1F0D07FE1FF0B5DF4D00212846               Valid               
477        000027C4   03F029FDDD4A1478082C00D9082403F0E4FE284604F001F9FEF736FF               Valid               
478        000027E0   FEF735F9FEF71EFFFEF731F9D54803F091FF002669E0F7B239462846               Valid               
479        000027FC   03F00DFDD14B1888D14B010018BF01211A88003A0CBF002101F00101               Valid               
480        00002818   CD4A82428CBF01220022114026D0CB4A1178012902D1C849081A80B2               Valid               
481        00002834   002103F0D2FF3146002003F07BFC7FF00501002203F0CFFFF0B20021               Valid               
482        00002850   03F055FF6421002003F05FFF012003F062FF00280CBF01200020FEF7               Valid               
483        0000286C   F0F803F079FF23E0384603F042FFB64A1178B24A01294FF400411088               Valid               
484        00002888   03D1884203D0002002E08842FBD00120002103F09BFF0A21002003F0               Valid               
485        000028A4   3AFF012003F07CFF00280CBF01200020FEF7CBF803F064FF00060CBF               Valid               
486        000028C0   01200020FEF7C3F80136A64293D3002603E0F0B204F0E2F80136A642               Valid               
487        000028DC   F9D3FEF7B5FEFEF7B4F8FEF79DFEFEF7B0F8954803F010FF002612E0               Valid               
488        000028F8   F7B23946284603F08CFC3146384603F0FAFE934A3946107803F060FF               Valid               
489        00002914   0A21384603F0FFFE0136A642EAD3204603F03EFF00280CBF01200020               Valid               
490        00002930   FEF78DF803F026FF00060CBF01200020FEF785F8002604E08449F0B2               Valid               
491        0000294C   04F06CF80136A642F8D3FEF779FEFEF778F8FEF761FEFEF774F87748               Valid               
492        00002968   03F0D4FE002633E0F1B2284603F051FC744A108858B3754A76481178               Valid               
493        00002984   012901D145F6FF70002103F026FF3146002003F0CFFB7FF005010022               Valid               
494        000029A0   03F023FFF0B2002103F0A9FE6421002003F0B3FE012003F0B6FE0028               Valid               
495        000029BC   0CBF01200020FEF744F803F0CDFE00060CBF01200020FEF73CF80136               Valid               
496        000029D8   A642C9D3002603E0F0B204F05BF80136A642F9D3FEF72EFEFEF72DF8               Valid               
497        000029F4   FEF716FEFEF729F8514803F089FE002612E0F7B23946284603F005FC               Valid               
498        00002A10   3146384603F073FE4F4A3946107803F0D9FE0A21384603F078FE0136               Valid               
499        00002A2C   A642EAD3204603F0B7FE00280CBF01200020FEF706F803F09FFE0006               Valid               
500        00002A48   0CBF01200020FDF7FEFF002604E0F0B2002103F0E5FF0136A642F8D3               Valid               
501        00002A64   FEF7F2FDFDF7F1FFFEF7DAFDFDF7EDFF334803F04DFE002617E0F7B2               Valid               
502        00002A80   3946284603F0C9FB3146384603F037FE304A01201178012900D10020               Valid               
503        00002A9C   F7B2394603F098FE0A21384603F037FE0136A642E5D3204603F076FE               Valid               
504        00002AB8   00280CBF01200020FDF7C5FF03F05EFE00060CBF01200020FDF7BDFF               Valid               
505        00002AD4   002603E0F0B203F0DFFF0136A642F9D3FEF7B2FDFDF7B1FFFEF79AFD               Valid               
506        00002AF0   FDF7ADFF134803F00DFE002612E0F7B23946284603F089FB31463846               Valid               
507        00002B0C   03F0F7FD114A3946107803F05DFE0A21384603F0FCFD0136A642EAD3               Valid               
508        00002B28   204603F03BFE00280CBF01200020FDF78AFF11E0B08500000F07FE1F               Valid               
509        00002B44   80F0FA021207FE1F1007FE1FFF7F00000C07FE1F0D07FE1F00200000               Valid               
510        00002B60   03F010FE00060CBF01200020FDF76FFF002605E04FF40041F0B203F0               Valid               
511        00002B7C   55FF0136A642F7D3FEF762FDFDF761FFFEF74AFDFDF75DFF504803F0               Valid               
512        00002B98   BDFD002617E0F7B23946284603F039FB3146384603F0A7FD4A4A0020               Valid               
513        00002BB4   1178012900D10846F7B2394603F008FE0A21384603F0A7FD0136A642               Valid               
514        00002BD0   E5D3204603F0E6FD00280CBF01200020FDF735FF03F0CEFD00060CBF               Valid               
515        00002BEC   01200020FDF72DFF002603E0F0B203F04FFF0136A642F9D3FEF722FD               Valid               
516        00002C08   FDF721FFFEF70AFDFDF71DFF304803F07DFD002612E0F7B239462846               Valid               
517        00002C24   03F0F9FA3146384603F067FD2B4A3946107803F0CDFD0A21384603F0               Valid               
518        00002C40   6CFD0136A642EAD3204603F0ABFD00280CBF01200020FDF7FAFE03F0               Valid               
519        00002C5C   93FD00060CBF01200020FDF7F2FE03F0CFFEFEF7EDFCFDF7ECFEFEF7               Valid               
520        00002C78   D5FCFDF7E8FE164803F048FD002612E0F7B23946284603F0C4FA3146               Valid               
521        00002C94   384603F032FD114A3946107803F098FD0A21384603F037FD0136A642               Valid               
522        00002CB0   EAD3204603F076FD00280CBF01200020FDF7C5FE03F05EFD00060CBF               Valid               
523        00002CCC   01200020FDF7BDFEF0BD00BF80F0FA020C07FE1F0D07FE1FF0B5DA4D               Valid               
524        00002CE8   0021284603F095FAD84A1478082C00D9082403F050FC284603F06DFE               Valid               
525        00002D04   FEF7A2FCFDF7A1FEFEF78AFCFDF79DFED04803F0FDFC002669E0F7B2               Valid               
526        00002D20   3946284603F079FACC4B1888CC4B010018BF01211A88003A0CBF0021               Valid               
527        00002D3C   01F00101C84A82428CBF01220022114026D0C64A1178012902D1C349               Valid               
528        00002D58   081A80B2002103F03EFD3146002003F0E7F97FF00501002203F03BFD               Valid               
529        00002D74   F0B2002103F0C1FC6421002003F0CBFC012003F0CEFC00280CBF0120               Valid               
530        00002D90   0020FDF75CFE03F0E5FC23E0384603F0AEFCB14A1178AD4A01294FF4               Valid               
531        00002DAC   0041108803D1884203D0002002E08842FBD00120002103F007FD0A21               Valid               
532        00002DC8   002003F0A6FC012003F0E8FC00280CBF01200020FDF737FE03F0D0FC               Valid               
533        00002DE4   00060CBF01200020FDF72FFE0136A64293D3002603E0F0B203F04EFE               Valid               
534        00002E00   0136A642F9D3FEF721FCFDF720FEFEF709FCFDF71CFE904803F07CFC               Valid               
535        00002E1C   002612E0F7B23946284603F0F8F93146384603F066FC8E4A39461078               Valid               
536        00002E38   03F0CCFC0A21384603F06BFC0136A642EAD3204603F0AAFC00280CBF               Valid               
537        00002E54   01200020FDF7F9FD03F092FC00060CBF01200020FDF7F1FD00260DE0               Valid               
538        00002E70   F7B23946284603F0D0F97D4A107820B97C4A7849384603F0E8FD0136               Valid               
539        00002E8C   A642EFD3FEF7DCFBFDF7DBFDFEF7C4FBFDF7D7FD6D4803F037FC0026               Valid               
540        00002EA8   32E0F1B2284603F0B4F96F4A107850BB6B4A6E481178012901D145F6               Valid               
541        00002EC4   FF70002103F089FC304603F058F97FF00501002203F087FCF0B20021               Valid               
542        00002EE0   03F00DFC6421002003F017FC012003F01AFC00280CBF01200020FDF7               Valid               
543        00002EFC   A8FD03F031FC00060CBF01200020FDF7A0FD0136A642CAD3002603E0               Valid               
544        00002F18   F0B203F0BFFD0136A642F9D3FEF792FBFDF791FDFEF77AFBFDF78DFD               Valid               
545        00002F34   484803F0EDFB002612E0F7B23946284603F069F93146384603F0D7FB               Valid               
546        00002F50   464A3946107803F03DFC0A21384603F0DCFB0136A642EAD3204603F0               Valid               
547        00002F6C   1BFC00280CBF01200020FDF76AFD03F003FC00060CBF01200020FDF7               Valid               
548        00002F88   62FD00260DE0F7B23946284603F041F9354A107820B9314938460022               Valid               
549        00002FA4   03F059FD0136A642EFD3FEF74DFBFDF74CFDFEF735FBFDF748FD03F0               Valid               
550        00002FC0   EEFA254803F0A6FB00262AE0F7B23946284603F022F9264A107808BB               Valid               
551        00002FDC   3846002103F08DFB204A01201178012900D10020002103F0EFFB0A21               Valid               
552        00002FF8   002003F08EFB012003F0D0FB00280CBF01200020FDF71FFD03F0B8FB               Valid               
553        00003014   00060CBF01200020FDF717FD0136A642D2D3002603E0F0B203F036FD               Valid               
554        00003030   0136A642F9D3FEF709FBFDF708FDFEF7F1FAFDF704FD044803F064FB               Valid               
555        0000304C   002626E0B08500000F07FE1F80F0FA021207FE1F1007FE1FFF7F0000               Valid               
556        00003068   0C07FE1F0D07FE1F0E07FE1F00200000F7B23946284603F0CCF83146               Valid               
557        00003084   384603F03AFB6E4A3946107803F0A0FB0A21384603F03FFB0136A642               Valid               
558        000030A0   EAD3204603F07EFB00280CBF01200020FDF7CDFC03F066FB00060CBF               Valid               
559        000030BC   01200020FDF7C5FC00260EE0F7B23946284603F0A4F85D4A107828B9               Valid               
560        000030D8   4FF400423846511E03F0BBFC0136A642EED3FEF7AFFAFDF7AEFCFEF7               Valid               
561        000030F4   97FAFDF7AAFC03F050FA534803F008FB00262AE0F7B23946284603F0               Valid               
562        00003110   84F84D4A107808BB3846002103F0EFFA4B4A00201178012900D10846               Valid               
563        0000312C   002103F051FB0A21002003F0F0FA012003F032FB00280CBF01200020               Valid               
564        00003148   FDF781FC03F01AFB00060CBF01200020FDF779FC0136A642D2D30026               Valid               
565        00003164   03E0F0B203F098FC0136A642F9D3FEF76BFAFDF76AFCFEF753FAFDF7               Valid               
566        00003180   66FC324803F0C6FA002612E0F7B23946284603F042F83146384603F0               Valid               
567        0000319C   B0FA294A3946107803F016FB0A21384603F0B5FA0136A642EAD32046               Valid               
568        000031B8   03F0F4FA00280CBF01200020FDF743FC03F0DCFA00060CBF01200020               Valid               
569        000031D4   FDF73BFC03F018FCFEF736FAFDF735FCFEF71EFAFDF731FC174803F0               Valid               
570        000031F0   91FA002612E0F7B23946284603F00DF83146384603F07BFA0E4A3946               Valid               
571        0000320C   107803F0E1FA0A21384603F080FA0136A642EAD3204603F0BFFA0028               Valid               
572        00003228   0CBF01200020FDF70EFC03F0A7FA00060CBF01200020FDF706FCF0BD               Valid               
573        00003244   0D07FE1F0E07FE1F80F0FA020C07FE1FF0B587B0D44ED548002102F0               Valid               
574        00003260   DCFFD44A1778082F00D9082703F097F9CF4803F0B4FBFEF7E9F9FDF7               Valid               
575        0000327C   E8FBFEF7D1F9FDF7E4FBCC4803F044FA002569E0C748ECB2214602F0               Valid               
576        00003298   C0FFC84B1888C84B010018BF01211A88003A0CBF002101F00101C44A               Valid               
577        000032B4   82428CBF01220022114026D0C14A1178012902D1BE49081A80B20021               Valid               
578        000032D0   03F085FA2946002002F02EFF7FF00501002203F082FAE8B2002103F0               Valid               
579        000032EC   08FA6421002003F012FA012003F015FA00280CBF01200020FDF7A3FB               Valid               
580        00003308   03F02CFA23E0204603F0F5F9AC4A1178A84A01294FF40041108803D1               Valid               
581        00003324   884203D0002002E08842FBD00120002103F04EFA0A21002003F0EDF9               Valid               
582        00003340   012003F02FFA00280CBF01200020FDF77EFB03F017FA00060CBF0120               Valid               
583        0000335C   0020FDF776FB0135BD4293D3002449E06000815B204603F059FBFEF7               Valid               
584        00003378   69F9FDF768FBFEF751F9FDF764FB8C4803F0C4F98848214602F043FF               Valid               
585        00003394   8A4A108880B38B490878012805D16000805BD0F5004080B201E06000               Valid               
586        000033B0   805B002103F013FA2146002002F0BCFE7FF00501002203F010FA2046               Valid               
587        000033CC   002103F096F90521002003F0A0F9012003F0A3F900280CBF01200020               Valid               
588        000033E8   FDF731FB03F0BAF900060CBF01200020FDF729FB0134E4B2BC42B3D3               Valid               
589        00003404   002405E02046012103F0A1FB0134E4B2BC42F7D3FEF718F9FDF717FB               Valid               
590        00003420   FEF700F9FDF713FB634803F073F9002526E05F48E9B202F0F0FE634A               Valid               
591        0000343C   01201178012900D10020002103F0C4F9E8B2002103F055F90A210020               Valid               
592        00003458   03F05FF9012003F0A1F900280CBF01200020FDF7F0FA03F089F90006               Valid               
593        00003474   0CBF01200020FDF7E8FA0135BD42D6D300240FE0204603F046FB6946               Valid               
594        00003490   63005852595A985B88420CBF01200020FDF7D5FA0134E4B2BC42EDD3               Valid               
595        000034AC   002405E02046002103F04DFB0134E4B2BC42F7D3FEF7C4F8FDF7C3FA               Valid               
596        000034C8   FEF7ACF8FDF7BFFA00243CE0384803F01DF93548214602F09CFE374A               Valid               
597        000034E4   108880B337490878012805D16100895BD1F5004080B201E06000805B               Valid               
598        00003500   002103F06CF92146002002F015FE7FF00501002203F069F920460021               Valid               
599        0000351C   03F0EFF80521002003F0F9F8012003F0FCF800280CBF01200020FDF7               Valid               
600        00003538   8AFA03F013F900060CBF01200020FDF782FA0134E4B2BC42C0D30024               Valid               
601        00003554   65E01648214602F05EFE1B4A107870B9600042F21071825B204603F0               Valid               
602        00003570   74FAFEF76BF8FDF76AFAFEF753F8FDF766FA0D4803F0C6F80D490888               Valid               
603        0000358C   002846D00E490878002842D10B490878012817D16100895BD1F50040               Valid               
604        000035A8   80B213E09003FE1FB08500000F07FE1F80F0FA021207FE1F1007FE1F               Valid               
605        000035C4   FF7F00000C07FE1F0E07FE1F6000805B002103F002F92146012002F0               Valid               
606        000035E0   ABFD7FF00501002203F0FFF82046002103F085F80521002003F08FF8               Valid               
607        000035FC   012003F092F800280CBF01200020FDF720FA03F0A9F800060CBF0120               Valid               
608        00003618   0020FDF718FA0134E4B2BC4297D3002405E02046012103F090FA0134               Valid               
609        00003634   E4B2BC42F7D3FEF707F8FDF706FAFDF7EFFFFDF702FABB4803F062F8               Valid               
610        00003650   002526E0B948E9B202F0DFFDB84A01201178012900D10020002103F0               Valid               
611        0000366C   B3F8E8B2002103F044F80A21002003F04EF8012003F090F800280CBF               Valid               
612        00003688   01200020FDF7DFF903F078F800060CBF01200020FDF7D7F90135BD42               Valid               
613        000036A4   D6D3002419E0A448214602F0B4FDA44A108880B1A349087868B92046               Valid               
614        000036C0   03F02BFA694663005852595A985B88420CBF01200020FDF7BAF90134               Valid               
615        000036DC   E4B2BC42E3D3002405E02046002103F032FA0134E4B2BC42F7D3FDF7               Valid               
616        000036F8   A9FFFDF7A8F9FDF791FFFDF7A4F900243CE08B4803F002F88A482146               Valid               
617        00003714   02F081FD8A4A108880B388490878012805D16100895BD1F5004080B2               Valid               
618        00003730   01E06000805B002103F051F82146012002F0FAFC7FF00501002203F0               Valid               
619        0000374C   4EF82046002102F0D4FF0521002002F0DEFF012002F0E1FF00280CBF               Valid               
620        00003768   01200020FDF76FF902F0F8FF00060CBF01200020FDF767F90134E4B2               Valid               
621        00003784   BC42C0D3002404E0204603F085F90134E4B2BC42F8D3FDF757FFFDF7               Valid               
622        000037A0   56F9FDF73FFFFDF752F9634802F0B2FF002512E06148ECB2214602F0               Valid               
623        000037BC   2EFD2946204602F09CFF614A2146107803F002F80A21204602F0A1FF               Valid               
624        000037D8   0135BD42EAD3384602F0E0FF00280CBF01200020FDF72FF902F0C8FF               Valid               
625        000037F4   00060CBF01200020FDF727F9002405E02046012103F0A3F90134E4B2               Valid               
626        00003810   BC42F7D3FDF71AFFFDF719F9FDF702FFFDF715F9444802F075FF0025               Valid               
627        0000382C   26E04348E9B202F0F2FC424A01201178012900D10020002102F0C6FF               Valid               
628        00003848   E8B2002102F057FF0A21002002F061FF012002F0A3FF00280CBF0120               Valid               
629        00003864   0020FDF7F2F802F08BFF00060CBF01200020FDF7EAF80135BD42D6D3               Valid               
630        00003880   00240EE0204603F048F9694662005052505A00280CBF01200020FDF7               Valid               
631        0000389C   D8F80134E4B2BC42EED3002405E02046002103F050F90134E4B2BC42               Valid               
632        000038B8   F7D3FDF7C7FEFDF7C6F8FDF7AFFEFDF7C2F803F09FF8FDF7BDFEFDF7               Valid               
633        000038D4   BCF8FDF7A5FEFDF7B8F8164802F018FF002512E01448ECB2214602F0               Valid               
634        000038F0   94FC2946204602F002FF144A2146107802F068FF0A21204602F007FF               Valid               
635        0000390C   0135BD42EAD3384602F046FF00280CBF01200020FDF795F802F02EFF               Valid               
636        00003928   00060CBF01200020FDF78DF807B0F0BD80F0FA02B08500000C07FE1F               Valid               
637        00003944   1007FE1F0E07FE1F0D07FE1FF0B5DE4D0021284602F05FFCDC4A1478               Valid               
638        00003960   082C00D9082402F01AFE284603F037F8FDF76CFEFDF76BF8FDF754FE               Valid               
639        0000397C   FDF767F8D44802F0C7FE00266AE0F7B23946284602F043FCD04B1888               Valid               
640        00003998   D04B010018BF01211A88003A0CBF002101F00101CC4A82428CBF0122               Valid               
641        000039B4   0022114027D0CA4A1178012902D1C749081A80B2002102F008FF3146               Valid               
642        000039D0   002002F0B1FB7FF00501002202F005FFF0B2002102F08BFE05210020               Valid               
643        000039EC   02F095FE012002F098FEC0B200280CBF01200020FDF725F802F0AEFE               Valid               
644        00003A08   23E0384602F077FEB44A1178B04A0129B349108803D1884203D00020               Valid               
645        00003A24   02E08842FBD00120002102F0D1FE0A21002002F070FE012002F0B2FE               Valid               
646        00003A40   C0B200280CBF01200020FDF700F802F099FE00280CBF01200020FCF7               Valid               
647        00003A5C   F8FF0136A64292D3002604E0F0B2002102F0DCFF0136A642F8D3FDF7               Valid               
648        00003A78   E9FDFCF7E8FFFDF7D1FDFCF7E4FF934802F044FE002617E0F7B23946               Valid               
649        00003A94   284602F0C0FB3146384602F02EFE904A01201178012900D10020F7B2               Valid               
650        00003AB0   394602F08FFE0A21384602F02EFE0136A642E5D3204602F06DFEC0B2               Valid               
651        00003ACC   00280CBF01200020FCF7BBFF02F054FE00280CBF01200020FCF7B3FF               Valid               
652        00003AE8   002604E07E49F0B202F09AFF0136A642F8D3764802F00AFE002617E0               Valid               
653        00003B04   F7B23946284602F086FB3146384602F0F4FD734A00201178012900D1               Valid               
654        00003B20   0846F7B2394602F055FE0A21384602F0F4FD0136A642E5D3204602F0               Valid               
655        00003B3C   33FEC0B200280CBF01200020FCF781FF02F01AFE00280CBF01200020               Valid               
656        00003B58   FCF779FF002604E06249F0B202F060FF0136A642F8D3FDF76DFDFCF7               Valid               
657        00003B74   6CFFFDF755FDFCF768FF554802F0C8FD002633E0F1B2284602F045FB               Valid               
658        00003B90   524A108858B3534A54481178012900D15348002102F01BFE31460020               Valid               
659        00003BAC   02F0C4FA7FF00501002202F018FEF0B2002102F09EFD0521002002F0               Valid               
660        00003BC8   A8FD012002F0ABFDC0B200280CBF01200020FCF738FF02F0C1FD0028               Valid               
661        00003BE4   0CBF01200020FCF730FF0136A642C9D3002604E0F0B2002102F014FF               Valid               
662        00003C00   0136A642F8D3FDF721FDFCF720FFFDF709FDFCF71CFF2F4802F07CFD               Valid               
663        00003C1C   002617E0F7B23946284602F0F8FA3146384602F066FD2C4A01201178               Valid               
664        00003C38   012900D10020F7B2394602F0C7FD0A21384602F066FD0136A642E5D3               Valid               
665        00003C54   204602F0A5FDC0B200280CBF01200020FCF7F3FE02F08CFD00280CBF               Valid               
666        00003C70   01200020FCF7EBFE002604E01B49F0B202F0D2FE0136A642F8D3FDF7               Valid               
667        00003C8C   DFFCFCF7DEFEFDF7C7FCFCF7DAFE0E4802F03AFD00264AE0F1B22846               Valid               
668        00003CA8   02F0B7FA0B4A1088002841D00B4A0D481178012900D10C48002102F0               Valid               
669        00003CC4   8CFD314614E000BFB08500000F07FE1F80F0FA021207FE1F1007FE1F               Valid               
670        00003CE0   FF7F00000C07FE1F0080000000200000FF5F0000002002F01FFA7FF0               Valid               
671        00003CFC   0501002202F073FDF0B2002102F0F9FC0521002002F003FD012002F0               Valid               
672        00003D18   06FDC0B200280CBF01200020FCF793FE02F01CFD00280CBF01200020               Valid               
673        00003D34   FCF78BFE0136A642B2D3002605E04FF40041F0B202F06EFE0136A642               Valid               
674        00003D50   F7D3FDF77BFCFCF77AFEFDF763FCFCF776FE554802F0D6FC002617E0               Valid               
675        00003D6C   F7B23946284602F052FA3146384602F0C0FC4F4A00201178012900D1               Valid               
676        00003D88   0846F7B2394602F021FD0A21384602F0C0FC0136A642E5D3204602F0               Valid               
677        00003DA4   FFFCC0B200280CBF01200020FCF74DFE02F0E6FC00280CBF01200020               Valid               
678        00003DC0   FCF745FE002604E0F0B2002102F02CFE0136A642F8D3FDF739FCFCF7               Valid               
679        00003DDC   38FEFDF721FCFCF734FE344802F094FC002617E0F7B23946284602F0               Valid               
680        00003DF8   10FA3146384602F07EFC2E4A01201178012900D10020F7B2394602F0               Valid               
681        00003E14   DFFC0A21384602F07EFC0136A642E5D3204602F0BDFCC0B200280CBF               Valid               
682        00003E30   01200020FCF70BFE02F0A4FC00280CBF01200020FCF703FE02F0E0FD               Valid               
683        00003E4C   FDF7FEFBFCF7FDFDFDF7E6FBFCF7F9FD164802F059FC002612E0F7B2               Valid               
684        00003E68   3946284602F0D5F93146384602F043FC114A3946107802F0A9FC0A21               Valid               
685        00003E84   384602F048FC0136A642EAD3204602F087FCC0B200280CBF01200020               Valid               
686        00003EA0   FCF7D5FD02F06EFC00280CBF01200020FCF7CDFDF0BD00BF80F0FA02               Valid               
687        00003EBC   0C07FE1F0D07FE1FF0B5DA4E0021304602F0A5F9D84A1578082D00D9               Valid               
688        00003ED8   082502F060FB304602F07DFDFDF7B2FBFCF7B1FDFDF79AFBFCF7ADFD               Valid               
689        00003EF4   D04802F00DFC00246AE0E7B23946304602F089F9CC4B1888CC4B0100               Valid               
690        00003F10   18BF01211A88003A0CBF002101F00101C84A82428CBF012200221140               Valid               
691        00003F2C   27D0C64A1178012902D1C349081A80B2002102F04EFC2146002002F0               Valid               
692        00003F48   F7F87FF00501002202F04BFCE0B2002102F0D1FB0521002002F0DBFB               Valid               
693        00003F64   012002F0DEFBC0B200280CBF01200020FCF76BFD02F0F4FB23E03846               Valid               
694        00003F80   02F0BDFBB04A1178AC4A0129AF49108803D1884203D0002002E08842               Valid               
695        00003F9C   FBD00120002102F017FC0A21002002F0B6FB012002F0F8FBC0B20028               Valid               
696        00003FB8   0CBF01200020FCF746FD02F0DFFB00280CBF01200020FCF73EFD0134               Valid               
697        00003FD4   AC4292D300240DE0E7B23946304602F01AF99A4A107820B995493846               Valid               
698        00003FF0   002202F032FD0134AC42EFD3FDF726FBFCF725FDFDF70EFBFCF721FD               Valid               
699        0000400C   0A20FDF728F802F0C4FA884802F07CFB00242BE0E7B23946304602F0               Valid               
700        00004028   F8F8894A107810BB3846002102F063FB834A01201178012900D10020               Valid               
701        00004044   002102F0C5FB0A21002002F064FB012002F0A6FBC0B200280CBF0120               Valid               
702        00004060   0020FCF7F4FC02F08DFB00280CBF01200020FCF7ECFC0134AC42D1D3               Valid               
703        0000407C   00240DE0E7B23946304602F0C8F8714A107820B96E4A3846511E02F0               Valid               
704        00004098   E0FC0134AC42EFD3FDF7D4FAFCF7D3FCFDF7BCFAFCF7CFFC0A20FCF7               Valid               
705        000040B4   D6FF02F072FA5F4802F02AFB00242BE0E7B23946304602F0A6F8604A               Valid               
706        000040D0   107810BB3846002102F011FB5A4A00201178012900D10846002102F0               Valid               
707        000040EC   73FB0A21002002F012FB012002F054FBC0B200280CBF01200020FCF7               Valid               
708        00004108   A2FC02F03BFB00280CBF01200020FCF79AFC0134AC42D1D300240DE0               Valid               
709        00004124   E7B23946304602F076F8484A107820B9474A4349384602F08EFC0134               Valid               
710        00004140   AC42EFD3FDF782FAFCF781FCFDF76AFAFCF77DFC384802F0DDFA0024               Valid               
711        0000415C   33E0E1B2304602F05AF83A4A107858BB364A39481178012901D145F6               Valid               
712        00004178   FF70002102F02FFB204602F01CF87FF00501002202F02DFBE0B20021               Valid               
713        00004194   02F0B3FA0521002002F0BDFA012002F0C0FAC0B200280CBF01200020               Valid               
714        000041B0   FCF74DFC02F0D6FA00280CBF01200020FCF745FC0134AC42C9D30024               Valid               
715        000041CC   0DE0E7B23946304602F021F81D4A107820B919493846002202F039FC               Valid               
716        000041E8   0134AC42EFD3FDF72DFAFCF72CFCFDF715FAFCF728FC0A20FCF72FFF               Valid               
717        00004204   02F0CBF90B4802F083FA002441E0E7B23946304601F0FFFF0C4A1078               Valid               
718        00004220   C0BB3846002102F06AFA074A14E000BFB08500000F07FE1F80F0FA02               Valid               
719        0000423C   1207FE1F1007FE1FFF7F00000C07FE1F008000000E07FE1F00200000               Valid               
720        00004258   01201178012900D10020002102F0B6FA0A21002002F055FA012002F0               Valid               
721        00004274   97FAC0B200280CBF01200020FCF7E5FB02F07EFA00280CBF01200020               Valid               
722        00004290   FCF7DDFB0134AC42BBD300240DE0E7B23946304601F0B9FF944A1078               Valid               
723        000042AC   20B9944A9449384602F0D1FB0134AC42EFD3FDF7C5F9FCF7C4FBFDF7               Valid               
724        000042C8   ADF9FCF7C0FB0A20FCF7C7FE8C4802F01DFA002433E0E1B2304601F0               Valid               
725        000042E4   9AFF854A107858BB874A84481178012901D145F6FF70002102F06FFA               Valid               
726        00004300   204601F05CFF7FF00501002202F06DFAE0B2002102F0F3F905210020               Valid               
727        0000431C   02F0FDF9012002F000FAC0B200280CBF01200020FCF78DFB02F016FA               Valid               
728        00004338   00280CBF01200020FCF785FB0134AC42C9D300240EE0E7B239463046               Valid               
729        00004354   01F061FF684A107828B94FF400423846511E02F078FB0134AC42EED3               Valid               
730        00004370   FDF76CF9FCF76BFBFDF754F9FCF767FB02F00DF9604802F0C5F90024               Valid               
731        0000438C   2BE0E7B23946304601F041FF584A107810BB3846002102F0ACF9594A               Valid               
732        000043A8   00201178012900D10846002102F00EFA0A21002002F0ADF9012002F0               Valid               
733        000043C4   EFF9C0B200280CBF01200020FCF73DFB02F0D6F900280CBF01200020               Valid               
734        000043E0   FCF735FB0134AC42D1D300240DE0E7B23946304601F011FF404A1078               Valid               
735        000043FC   20B941493846002202F029FB0134AC42EFD3FDF71DF9FCF71CFBFDF7               Valid               
736        00004418   05F9FCF718FB0A20FCF71FFE02F0BBF8374802F073F900242BE0E7B2               Valid               
737        00004434   3946304601F0EFFE2F4A107810BB3846002102F05AF9304A01201178               Valid               
738        00004450   012900D10020002102F0BCF90A21002002F05BF9012002F09DF9C0B2               Valid               
739        0000446C   00280CBF01200020FCF7EBFA02F084F900280CBF01200020FCF7E3FA               Valid               
740        00004488   0134AC42D1D302F0BDFAFDF7DBF8FCF7DAFAFDF7C3F8FCF7D6FA1948               Valid               
741        000044A4   02F036F9002412E0E7B23946304601F0B2FE2146384602F020F9144A               Valid               
742        000044C0   3946107802F086F90A21384602F025F90134AC42EAD3284602F064F9               Valid               
743        000044DC   C0B200280CBF01200020FCF7B2FA02F04BF900280CBF01200020FCF7               Valid               
744        000044F8   AAFAF0BD0E07FE1F00200000FF7F000080F0FA020C07FE1F0D07FE1F               Valid               
745        00004514   0020DD4A002342F8203001302028F8D3704700200146D84B53F82120               Valid               
746        00004530   02B1012001312029F7D37047F0B58EB0D348002101F069FED24A1278               Valid               
747        0000454C   0192082A01D90821019102F022F8CD4802F03FFAFDF774F8FCF773FA               Valid               
748        00004568   FDF75CF8FCF76FFAC94802F0CFF8002744E0C548F9B201F04CFEC64B               Valid               
749        00004584   1888C64B010018BF01211A88003A0CBF002101F00101C24A82428CBF               Valid               
750        000045A0   0122002211402CD0BF4A1178012902D1BC49081A80B2002102F011F9               Valid               
751        000045BC   3946002001F0BAFD7FF00501002202F00EF9F8B2002102F094F86421               Valid               
752        000045D8   002002F09EF8012002F0A1F8C0B200280CBF01200020FCF72EFA02F0               Valid               
753        000045F4   B7F800280CBF01200020FCF726FA013701988742B7D3002404E0A749               Valid               
754        00004610   E0B202F009FA013401988442F7D303A8002701F0BAFD3C4607E003AA               Valid               
755        0000462C   52F824000199884200D2274601340D988442F4D9002459E003AB53F8               Valid               
756        00004648   2460FFF763FFF0B2022102F03DFA964D8C4B009353F826000A2801D2               Valid               
757        00004664   013DF7D1F0B2029002F023FA009B002143F82610280018BF0120FCF7               Valid               
758        00004680   E6F9FFF750FF00280CBF01200020FCF7DEF9FCF7DBFFFCF7DAF9FCF7               Valid               
759        0000469C   C3FFFCF7D6F9029802F0FAF90298022102F010FA7F4D009850F82600               Valid               
760        000046B8   08B9013DF9D1F0B202F0F9F9009A002042F82600002D08BF0120FCF7               Valid               
761        000046D4   BCF9FFF726FF00280CBF01200020FCF7B4F9FCF7B1FFFCF7B0F9FCF7               Valid               
762        000046F0   99FFFCF7ACF90134BC42A3D3002404E06A49E0B202F090F901340198               Valid               
763        0000470C   8442F7D303A8002701F039FD3C4607E003AA52F824000199884200D2               Valid               
764        00004728   274601340D988442F4D9002459E003AB53F82460FFF7EAFEF0B20121               Valid               
765        00004744   02F0C4F9594D504B009353F826100A2901D2013DF7D1F0B2029002F0               Valid               
766        00004760   AAF9009B002143F82610280018BF0120FCF76DF9FFF7D7FE00280CBF               Valid               
767        0000477C   01200020FCF765F9FCF762FFFCF761F9FCF74AFFFCF75DF9029802F0               Valid               
768        00004798   81F90298012102F097F9434D009850F8260008B9013DF9D1F0B202F0               Valid               
769        000047B4   80F9009A002042F82600002D08BF0120FCF743F9FFF7ADFE00280CBF               Valid               
770        000047D0   01200020FCF73BF9FCF738FFFCF737F9FCF720FFFCF733F90134BC42               Valid               
771        000047EC   A3D3002404E02E49E0B202F017F9013401988442F7D303A8002701F0               Valid               
772        00004808   D1FC3C4607E003AA52F824000199884200D2274601340D988442F4D9               Valid               
773        00004824   00246FE003AB53F82460FFF771FEF0B2032102F04BF91D4D134B0093               Valid               
774        00004840   53F826100A2901D2013DF7D1F0B2029002F031F9009B002143F82610               Valid               
775        0000485C   280018BF0120FCF7F4F8FFF75EFE00280CBF01200020FCF7ECF8FCF7               Valid               
776        00004878   E9FEFCF7E8F8FCF7D1FEFCF7E4F8029814E000BF8404FE1FB0850000               Valid               
777        00004894   0F07FE1F80F0FA021207FE1F1007FE1FFF7F00000C07FE1F00400000               Valid               
778        000048B0   400D030002F0F2F80298032102F008F9434D009850F8260008B9013D               Valid               
779        000048CC   F9D1F0B202F0F1F8009A002042F82600002D08BF0120FCF7B4F8FFF7               Valid               
780        000048E8   1EFE00280CBF01200020FCF7ACF8FCF7A9FEFCF7A8F8FCF791FEFCF7               Valid               
781        00004904   A4F80134BC428DD3002405E04FF48041E0B202F087F8013401988442               Valid               
782        00004920   F6D300240BE0E0B202F0C5F8FCF78EFEFCF78DF8FCF776FEFCF789F8               Valid               
783        0000493C   013401988442F0D3FFF7E6FDFCF797FBFFF7EBFD00280CBF01200020               Valid               
784        00004958   FCF779F802F056F8FCF774FEFCF773F8FCF75CFEFCF76FF8184801F0               Valid               
785        00004974   CFFE002712E01748FCB2214601F04BFC3946204601F0B9FE134A2146               Valid               
786        00004990   107801F01FFF0A21204601F0BEFE013701988742E9D3C0B201F0FCFE               Valid               
787        000049AC   C0B200280CBF01200020FCF74AF801F0E3FE00280CBF01200020FCF7               Valid               
788        000049C8   42F80EB0F0BD00BF400D030080F0FA02B08500000D07FE1FF0B5DA4E               Valid               
789        000049E4   0021304601F017FCD84A1578082D00D9082501F0D2FD304601F0EFFF               Valid               
790        00004A00   FCF724FEFCF723F8FCF70CFEFCF71FF8D04801F07FFE00246BE0E7B2               Valid               
791        00004A1C   3946304601F0FBFBCC4B1888CC4B010018BF01211A88003A0CBF0021               Valid               
792        00004A38   01F00101C84A82428CBF01220022114027D0C64A1178012902D1C349               Valid               
793        00004A54   081A80B2002101F0C0FE2146002001F069FB7FF00501002201F0BDFE               Valid               
794        00004A70   E0B2002101F043FE0521002001F04DFE012001F050FEC0B200280CBF               Valid               
795        00004A8C   01200020FBF7DDFF01F066FE24E0384601F02FFEB04A1178AC4A0129               Valid               
796        00004AA8   4FF40041108803D1884203D0002002E08842FBD00120002101F088FE               Valid               
797        00004AC4   0A21002001F027FE012001F069FEC0B200280CBF01200020FBF7B7FF               Valid               
798        00004AE0   01F050FE00280CBF01200020FBF7AFFF0134AC4291D300240DE0E7B2               Valid               
799        00004AFC   3946304601F08BFB984A107820B9984A9849384601F0A3FF0134AC42               Valid               
800        00004B18   EFD3FCF797FDFBF796FFFCF77FFDFBF792FF0A20FCF799FA884801F0               Valid               
801        00004B34   EFFD002432E0E1B2304601F06CFB894A107850BB864A884811780129               Valid               
802        00004B50   00D18848002101F042FE204601F033FB7FF00501002201F040FEE0B2               Valid               
803        00004B6C   002101F0C6FD0521002001F0D0FD012001F0D3FDC0B200280CBF0120               Valid               
804        00004B88   0020FBF760FF01F0E9FD00280CBF01200020FBF758FF0134AC42CAD3               Valid               
805        00004BA4   00240DE0E7B23946304601F034FB6D4A107820B96C4A6949384601F0               Valid               
806        00004BC0   4CFF0134AC42EFD3FCF740FDFBF73FFFFCF728FDFBF73BFF0A20FCF7               Valid               
807        00004BDC   42FA5D4801F098FD002432E0E1B2304601F015FB5D4A107850BB5B4A               Valid               
808        00004BF8   5C481178012900D15C48002101F0EBFD204601F0E0FA7FF005010022               Valid               
809        00004C14   01F0E9FDE0B2002101F06FFD0521002001F079FD012001F07CFDC0B2               Valid               
810        00004C30   00280CBF01200020FBF709FF01F092FD00280CBF01200020FBF701FF               Valid               
811        00004C4C   0134AC42CAD300240DE0E7B23946304601F0DDFA414A107820B9414A               Valid               
812        00004C68   4149384601F0F5FE0134AC42EFD3FCF7E9FCFBF7E8FEFCF7D1FCFBF7               Valid               
813        00004C84   E4FE0A20FCF7EBF9314801F041FD002432E0E1B2304601F0BEFA324A               Valid               
814        00004CA0   107850BB2F4A31481178012900D13148002101F094FD204601F085FA               Valid               
815        00004CBC   7FF00501002201F092FDE0B2002101F018FD0521002001F022FD0120               Valid               
816        00004CD8   01F025FDC0B200280CBF01200020FBF7B2FE01F03BFD00280CBF0120               Valid               
817        00004CF4   0020FBF7AAFE0134AC42CAD301F084FEFCF7A2FCFBF7A1FEFCF78AFC               Valid               
818        00004D10   FBF79DFE0F4801F0FDFC002412E0E7B23946304601F079FA21463846               Valid               
819        00004D2C   01F0E7FC114A3946107801F04DFD0A21384601F0ECFC0134AC42EAD3               Valid               
820        00004D48   18E000BFB08500000F07FE1F80F0FA021207FE1F1007FE1FFF7F0000               Valid               
821        00004D64   0C07FE1F0E07FE1F00200000CC0C0000FF5F00000D07FE1F284601F0               Valid               
822        00004D80   11FDC0B200280CBF01200020FBF75FFE01F0F8FC00280CBF01200020               Valid               
823        00004D9C   FBF757FEF0BD00000020A34A002342F8203001302028F8D370470020               Valid               
824        00004DB8   01469E4B53F8212002B1012001312029F7D37047F0B58FB099480021               Valid               
825        00004DD4   01F021FA984A1678082E00D9082601F0DCFB944801F0F9FDFCF72EFC               Valid               
826        00004DF0   FBF72DFEFCF716FCFBF729FE904801F089FC002444E08C48E1B201F0               Valid               
827        00004E0C   06FA8D4B18888D4B010018BF01211A88003A0CBF002101F00101894A               Valid               
828        00004E28   82428CBF0122002211402CD0864A1178012902D18349081A80B20021               Valid               
829        00004E44   01F0CBFC2146002001F074F97FF00501002201F0C8FCE0B2002101F0               Valid               
830        00004E60   4EFC6421002001F058FC012001F05BFCC0B200280CBF01200020FBF7               Valid               
831        00004E7C   E8FD01F071FC00280CBF01200020FBF7E0FD0134B442B8D3002405E0               Valid               
832        00004E98   4FF48041E0B201F0C3FD0134B442F7D30021009169480099415C0391               Valid               
833        00004EB4   04A8012906D309D003290AD302D101F09CF908E00020FBF7C0FD04E0               Valid               
834        00004ED0   01F083F901E001F089F90024254605E057F82500B04200D22C460135               Valid               
835        00004EEC   0E9804AF8542F5D9002541E0039917F8250001F0E7FDFCF7A3FBFBF7               Valid               
836        00004F08   A2FDFCF78BFBFBF79EFD0023019301984F494000415A029117F82500               Valid               
837        00004F24   01F080FDFCF790FBFBF78FFDFCF778FBFBF78BFD3E4B57F825000021               Valid               
838        00004F40   43F82010FCF799F83A4B57F8250053F82000002808D90298010002D0               Valid               
839        00004F5C   B1F5004F02D10020FBF773FD0198013001900728D1D317F8250001F0               Valid               
840        00004F78   9EFD0135A542BBD3009801300090032890D300240BE0E0B201F091FD               Valid               
841        00004F94   FCF75AFBFBF759FDFCF742FBFBF755FD0134B442F1D3FFF7FBFEFCF7               Valid               
842        00004FB0   64F8FFF700FF00280CBF01200020FBF746FD01F023FDFCF741FBFBF7               Valid               
843        00004FCC   40FDFCF729FBFBF73CFD1A4801F09CFB002412E01548E5B2294601F0               Valid               
844        00004FE8   18F92146284601F086FB1A4A2946107801F0ECFB0A21284601F08BFB               Valid               
845        00005004   0134B442EAD3304601F0CAFBC0B200280CBF01200020FBF718FD01F0               Valid               
846        00005020   B1FB00280CBF01200020FBF710FD0FB0F0BD00BF8404FE1FB0850000               Valid               
847        0000503C   0F07FE1F80F0FA021207FE1F1007FE1FFF7F00000C07FE1F90740000               Valid               
848        00005058   947400000D07FE1F0020A44A002342F8203001302028F8D370470020               Valid               
849        00005074   01469F4B53F8212002B1012001312029F7D37047F0B58FB06A460120               Valid               
850        00005090   5070022090700320D0709748002101F0BCF8964A1778082F00D90827               Valid               
851        000050AC   01F077FA914801F094FCFCF7C9FAFBF7C8FCFCF7B1FAFBF7C4FC8E48               Valid               
852        000050C8   01F024FB002544E08948E9B201F0A1F88A4B18888A4B010018BF0121               Valid               
853        000050E4   1A88003A0CBF002101F00101864A82428CBF0122002211402CD0844A               Valid               
854        00005100   1178012902D18149081A80B2002101F066FB2946002001F00FF87FF0               Valid               
855        0000511C   0501002201F063FBE8B2002101F0E9FA6421002001F0F3FA012001F0               Valid               
856        00005138   F6FAC0B200280CBF01200020FBF783FC01F00CFB00280CBF01200020               Valid               
857        00005154   FBF77BFC0135BD42B8D300210291029B6A46D2185178039104A80129               Valid               
858        00005170   06D309D003290AD302D101F040F808E00020FBF764FC04E001F027F8               Valid               
859        0000518C   01E001F02DF800252C4605E056F82400B84200D2254601340E9804AE               Valid               
860        000051A8   8442F5D9002461E0039916F8240001F08BFC16F82400002101F032FC               Valid               
861        000051C4   FFF74CFFFBF757FFFFF751FF00280CBF01200020FBF739FC4FF48041               Valid               
862        000051E0   16F8240001F020FCFFF73AFF4948019056F824103F4B89005A580A2A               Valid               
863        000051FC   04D2019A013A01920138F3D13A4A5058003818BF0120FBF71CFC374B               Valid               
864        00005218   56F824000021019A43F82010100018BF0120FBF710FC4FF4004116F8               Valid               
865        00005234   240001F0F7FBFFF711FFFBF71CFFFFF716FF00280CBF01200020FBF7               Valid               
866        00005250   FEFB16F8240001F02EFCFFF701FFFBF70CFFFFF706FF00280CBF0120               Valid               
867        0000526C   0020FBF7EEFB0134AC429BD30298013002900328FFF46FAF01F0C2FB               Valid               
868        00005288   FCF7E0F9FBF7DFFBFCF7C8F9FBF7DBFB194801F03BFA002512E01548               Valid               
869        000052A4   ECB2214600F0B7FF2946204601F025FA184A2146107801F08BFA0A21               Valid               
870        000052C0   204601F02AFA0135BD42EAD3384601F069FAC0B200280CBF01200020               Valid               
871        000052DC   FBF7B7FB01F050FA00280CBF01200020FBF7AFFB0FB0F0BD8404FE1F               Valid               
872        000052F8   B08500000F07FE1F80F0FA021207FE1F1007FE1FFF7F00000C07FE1F               Valid               
873        00005314   E09304000D07FE1FF0B5A34E0021304600F079FFA14A1578082D00D9               Valid               
874        00005330   082501F034F9304601F051FBFCF786F9FBF785FBFCF76EF9FBF781FB               Valid               
875        0000534C   994801F0E1F9002444E0E1B2304600F05EFF964B1888964B010018BF               Valid               
